:1000000012C08EC52BC02AC029C028C0CDC6D6C5F7
:1000100025C0EAC423C0F5C685C6B5C51FC01EC02D
:100020001DC01CC01BC011241FBECFEFD3E0DEBF1C
:10003000CDBF10E0A0E6B0E0E4E6F0E102C005903C
:100040000D92A036B107D9F710E0A0E6B0E001C0EC
:100050001D92A43FB107E1F702D002C8D1CF1F9390
:10006000C4D2F7D20FD3182F3ED5212F30E0922FD4
:100070008827822B932B45D78DE592E0612F96D46C
:100080008DE490E067E670E04CEB50E05DD3812FAB
:10009000A7D122D180E01F910895982F80937200FC
:1000A0006093730080916000981721F080E0907E4B
:1000B000903E09F481E08093740010926D0043300B
:1000C00019F481E080936D0040936E000895982F9D
:1000D00080917400882309F44EC09923B9F4609389
:1000E0007500613009F447C010926D006E3F09F051
:1000F00042C0109264001092650010926600109247
:1001000067001092680010926900089580916D0058
:10011000882359F0913019F4623429F406C09230E2
:1001200021F46C3411F010926D00809175008E3FB7
:1001300011F483E003C08C3FF1F484E0913019F4B2
:1001400060936A000895923019F460936B000895EB
:10015000891788F4E62FEF70E83068F4F0E0E05A91
:10016000FF4F62956F7081E001C0880F6A95EAF7D2
:100170009281892B828308951F93DF93CF9300D0C0
:10018000CDB7DEB7982F162F80917400882309F41D
:100190009DC0992309F49AC080917200807E803EB0
:1001A00031F4809175008F3F09F081C050C080917B
:1001B0006D00811157D2809175008C3F31F18D3FD8
:1001C00030F4882349F0813009F043C07DC08E3F70
:1001D000E1F08F3FF1F537C080917100813009F077
:1001E00066C01092710090E080916C00882309F441
:1001F00091E090936C0082E080936F0060E070E08B
:1002000080E090E0E5D324D152C08C3F11F084E02F
:1002100001C085E08093700080916A008093610046
:100220003DD280916B00FBD082E690E0E8D08091D7
:1002300071008230E1F51092710060E070E080E0C2
:1002400090E0C6D334C080916E00813081F50AD22F
:100250002EC01123F1F4982F92959F708F708230E9
:1002600019F0833021F509C081E001C0880F9A950B
:10027000EAF790916100892B09C081E001C0880FE5
:100280009A95EAF7809590916100892380936100A7
:1002900005D281E08983809173008A83CE01019623
:1002A00019D2882321F08AE06DE871E011D28091A3
:1002B0007100813059F410927100D3D060E070E089
:1002C00080E090E085D302C083E0E4CF2296CDBFEA
:1002D000CF91DF911F910895BF92CF92DF92EF925D
:1002E000FF920F931F93DF93CF93CDB7DEB7CC5020
:1002F000CDBFBB24BA947E010894E11CF11C83E0BD
:10030000C82ED12CCC0EDD1E01E0FDD1192F83307B
:10031000A9F0843020F4813009F05DC006C084303B
:1003200089F1853009F057C019C01B8280916100A6
:100330008C8380916000B70142E00DC06DD00B83CB
:10034000909161009C838D831E821F82809160004A
:10035000B70140917000212FF2D2D7CFC60168E0DB
:10036000412F60D0182F3BD4882399F580916000ED
:10037000B701412F20916C00E2D2882351F5009300
:1003800071001DC010916F00CDD51F5F8370180FD5
:1003900010936F00123018F41E5F10936F0080915D
:1003A0007100823099F41BD4882349F4BB821C82EB
:1003B00080916000B70142E020916C00C0D2609152
:1003C0006F0070E080E090E003D39FCF813009F0B0
:1003D0009CCF47D09ACF8AE066EB70E079D195CF79
:1003E0008093600082E08093710080936F0006D05C
:1003F00062E070E080E090E0EBD208950895DC01C7
:10040000E1EBF0E012968C9112978193119680E0C7
:10041000E73BF807B9F70895809176000895809337
:1004200076000895DC019091AD0020E009C09F5F47
:100430009F71E92FF0E0EA58FF4F84898D932F5F79
:10044000941711F0261798F39093AC00822F08951B
:100450008091AC008093AD008093AB001092AE0011
:1004600008958091AD008093AB001092AE00089586
:10047000282FE62FF0E0EA58FF4F81E0022E01C05E
:10048000880F0A94EAF791AD8923B1F0E091AA00B0
:10049000EF5FEF718091AD00E81751F0E093AA0093
:1004A000F0E0EA58FF4F2295207F262B248B0895F9
:1004B0008CE064E570E00CD10895AF92BF92CF92CA
:1004C000DF92EF92FF920F931F93DF93CF9300D0B1
:1004D000CDB7DEB7F4D030917600909177009827B1
:1004E00020917800209377002827292B909179007C
:1004F000909378009827922B909580937900892388
:10050000092F00950323082B009376008AE7E82E35
:1005100080E0F82E10E0AA24A394B02EB326DA2CA3
:10052000012E01C0DD0C0A94EAF7CD2CC02291F017
:10053000F7018081918101969183808384369105B2
:1005400019F4812F64E005C0883C910519F4812FCE
:1005500066E08EDF8D2D8B21C1F0CC2039F0812F0C
:1005600062E086DFF701118210820FC0812F67E001
:100570007FDFF701808191818536910518F0812F09
:1005800065E002C0812F63E073DF1F5F82E090E0CF
:10059000E80EF91E183019F68091AE008823C1F4D8
:1005A0001ED38823A9F49091AA008091AB008917EB
:1005B00079F085E089839A83CE0101968BD08823D8
:1005C00039F48091AA008093AB0081E08093AE0063
:1005D0002296CDBFCF91DF911F910F91FF90EF90A9
:1005E000DF90CF90BF90AF90089581B3877081BBAB
:1005F00082B3886F82BB80E384BB87BB82E085BF08
:100600008BB780648BBF7894089585B7806885BF69
:10061000889585B78F7785BF0895DF93CF9300D0F6
:10062000CDB7DEB7F89430E320E11A82198205C015
:1006300089819A8101969A83898389819A818052DE
:100640009E44B0F388B3832788BB85B3822785BBDC
:10065000ECCF9DE088E10FB6F894A89581BD0FBE60
:1006600091BD089598E088E10FB6F894A89581BDF2
:100670000FBE91BD85B7806885BF889585B78F7798
:1006800085BFF8CF80B3809592B3977092BB91B33A
:10069000986F91BB869586958695089525B3982F7A
:1006A00091709295907F2F7E922B95BB98B3867018
:1006B000880F880F880F9F7C982B98BB089596B35E
:1006C00083B38295807F9F70892B809590E00895F9
:1006D00041D40895DC01E091C700EF5FE77080919D
:1006E000C800E81711F481E00895E093C7008C91E9
:1006F000F0E0EE0FFF1FE954FF4F11969C9191839C
:10070000808380E00895A8952FB7F8949091C70052
:100710008091C800981779F02FBFE091C800EF5F73
:10072000E770E093C800F0E0EE0FFF1FE954FF4FC1
:1007300080819181089585B7806885BF2FBF889596
:1007400085B78F7785BFDFCF9093CA008093C900AC
:100750007093CC006093CB005093CE004093CD00BB
:100760001092D6008FEF9FEF9093D5008093D40026
:1007700008951092D6008FEF9FEF9093D50080934D
:10078000D40008951F93682F2091D6002330C8F419
:100790008091D4009091D5008627082E8295807F85
:1007A0008025092E982F82958F7008268695982788
:1007B0008927880F880F880F80259093D500809314
:1007C000D400223069F1233030F4222359F0213053
:1007D00009F0AFC00FC0233009F440C0243009F045
:1007E000A8C044C06093CF0081E08093D600ECD0D5
:1007F0008DD3A3C0462F4F774093D000661F662746
:10080000661FE091C900F091CA008091CF00099560
:100810008091D000882301F11092D10082E023C0A2
:10082000E091CB00F091CC008091D1008F5F80935C
:10083000D100815009959091D1008091D0009817F6
:1008400009F07BC08091D4009091D500809590955F
:100850009093D5008093D40083E005C06093D200CC
:100860001092D30084E08093D60067C0962F80E07A
:100870002091D2003091D300282B392B3093D30014
:100880002093D20010E08091D4009091D50082177F
:10089000930709F411E08091EA009091EB0028178A
:1008A000390711F060E01CC060E08091F000909189
:1008B000F100A091F200B091F3002091EC00309192
:1008C000ED004091EE005091EF00821B930BA40BC2
:1008D000B50BC397A105B10508F061E081E0682779
:1008E000E091CD00F091CE00812F09951123C1F048
:1008F0008091D2009091D3009093EB008093EA0016
:100900008091F0009091F100A091F200B091F3007D
:100910008093EC009093ED00A093EE00B093EF0075
:100920001092D6008FEF9FEF9093D5008093D40064
:1009300004C085E065ED70E0CBDE1F910895DB011A
:100940008C93222311F480E001C080E8842B11965F
:100950008C931197642F6E5FFD01962F2FEF3FEF61
:1009600013C081912827022E2295207F2025032E57
:10097000322F22952F700226269532272327220F09
:10098000220F220F20259150992359F7C9018095F4
:100990009095FD01E60FF11D80836F5FFD01E60F6D
:1009A000F11D90836F5FCD011DD108959093DC0000
:1009B0008093DB0085E083BF609562BF89B781606B
:1009C00089BF81E88EBD08952CB53DB5C901089554
:1009D0002FB7F8946093D7007093D8008093D90014
:1009E0009093DA002FBF08951F920F920FB60F92C7
:1009F00011242F933F934F935F936F937F938F9324
:100A00009F93AF93BF93EF93FF93DF93CF9300D068
:100A1000CDB7DEB782B7845282BF8091F00090914B
:100A2000F100A091F200B091F3000196A11DB11D5B
:100A30008093F0009093F100A093F200B093F30044
:100A40008091D7009091D800A091D900B091DA00A0
:100A50000097A105B10519F10197A109B10980938A
:100A6000D7009093D800A093D900B093DA000097F4
:100A7000A105B105A1F484E089831A82CE01019613
:100A800029DE882361F081E090E0A0E0B0E080936F
:100A9000D7009093D800A093D900B093DA00E091EA
:100AA000DB00F091DC0009952296CDBFCF91DF915C
:100AB000FF91EF91BF91AF919F918F917F916F9136
:100AC0005F914F913F912F910F900FBE0F901F900C
:100AD00018958093E2001092E10080E48ABF8BB702
:100AE00080648BBF08958F7190E0A0E0B0E0BC01FE
:100AF000CD0120E030E448E350E071D220E031EE57
:100B000040E050E08BD22058364E3093DE002093E8
:100B1000DD008BE089B988ED8AB98EE880BD089543
:100B20001F920F920FB60F9211242F933F938F9322
:100B30009F938091E1008823D1F48CB59DB58050BE
:100B4000944F9BBD8ABD80509C402091DD00309128
:100B5000DE00820F931F99BD88BD88E188BF89B7E9
:100B6000886189BF81E08093DF008093E0008BB7CC
:100B70008F7B8BBF9F918F913F912F910F900FBED5
:100B80000F901F9018951F920F920FB60F9211247D
:100B90008F93AD988091E100882351F084E0809399
:100BA000E2001092E10080E48ABF8BB780648BBFC3
:100BB0008F910F900FBE0F901F9018951F920F925C
:100BC0000FB60F9211248F9389B7877F89BF109238
:100BD000E0008F910F900FBE0F901F90189580919D
:100BE000E0000895EF92FF920F931F938C01F62E71
:100BF000662321F488E060E071E06ADD9FB7F89435
:100C00008091DF00882319F59FBF8BB78F7B8BBF47
:100C1000AD9A80E28A95F1F71092E0001093E5001A
:100C20000093E400F092E7001092E6001092E300D7
:100C30001092E200E090F000F090F1000091F200DC
:100C40001091F3008091E100882371F009C085B70D
:100C5000806885BF9FBF889585B78F7785BFCECFCA
:100C600088E068E271E034DD559A2091F00030911F
:100C7000F1004091F2005091F3002E193F09400B12
:100C8000510B9FB7F8948091E200882329F42A3011
:100C900031054105510530F09FBF8091E200882366
:100CA00071F409C085B7806885BF9FBF889585B7F7
:100CB0008F7785BFE6CF88E06DE371E009DD809135
:100CC000F0009091F100A091F200B091F3008E1924
:100CD0009F09A00BB10B0A97A105B10528F0AD98AB
:100CE00088E061E471E0F4DC8091E100882321F088
:100CF00088E064E471E0ECDC1092E2001092E10024
:100D000080E48ABF8BB780648BBF8091E200813022
:100D100011F480E002C08091E2001F910F91FF90DA
:100D2000EF9008951F920F920FB60F9211242F93F8
:100D30003F934F935F936F937F938F939F93AF9363
:100D4000BF93EF93FF9381E08093E1009091E600E1
:100D50008091E700891720F488E06DEA70E0B8DC44
:100D60009091E6008091E700981760F4E091E4002C
:100D7000F091E500E90FF11D80819F5F9093E600FF
:100D80008CB901C05598FF91EF91BF91AF919F91A0
:100D90008F917F916F915F914F913F912F910F9024
:100DA0000FBE0F901F9018951F920F920FB60F92C3
:100DB00011242F933F934F935F936F937F938F9360
:100DC0009F93AF93BF93EF93FF9389B78F7E89BFB4
:100DD000D0DC1092DF0080E48ABF8BB780648BBFC9
:100DE000FF91EF91BF91AF919F918F917F916F9103
:100DF0005F914F913F912F910F900FBE0F901F90D9
:100E000018951F920F920FB60F9211242F933F93B4
:100E10004F935F936F937F938F939F93AF93BF9302
:100E2000EF93FF938091E1008823D1F48CB59DB5B9
:100E30008050944F9BBD8ABD80509C402091DD0026
:100E40003091DE00820F931F99BD88BD88E188BF75
:100E500089B7886189BF81E08093DF008093E000DB
:100E60008BB18C7171F08091E100882351F082E0A8
:100E70008093E2001092E10080E48ABF8BB7806427
:100E80008BBF3CB18091E100882341F18091E30068
:100E9000E091E400F091E500E80FF11D9081282F2A
:100EA0002F5F2093E300391711F083E005C0809194
:100EB000E700281751F481E08093E2001092E100EE
:100EC00080E48ABF8BB780648BBF8091E700821774
:100ED00038F488E06CE970E0FBDB02C0832F52DC61
:100EE000FF91EF91BF91AF919F918F917F916F9102
:100EF0005F914F913F912F910F900FBE0F901F90D8
:100F000018959093E9008093E800089590E020916F
:100F1000E8003091E900282739273093E900209331
:100F2000E80008952091E8003091E9008BE490E01A
:100F3000AC01249FC001259F900D349F900D11247A
:100F4000865B9F4F9093E9008093E8008A5490401D
:100F5000892F0895382F4FB7F894E199FECF1FBA23
:100F60001EBAE09A2DB32F3F11F0263508F020E08D
:100F7000822F880F820F8F5FE199FECF1FBA1EBAB2
:100F80002F5F2DBB0FB6F894E29AE19A0FBE282F7F
:100F90002F5FE199FECF90E09FBB8EBB3DBB0FB6AC
:100FA000F894E29AE19A0FBEE199FECF822F90E089
:100FB0009FBB8EBB7DBB0FB6F894E29AE19A0FBE41
:100FC000E199FECF2F5F822F90E09FBB8EBB6DBB60
:100FD0000FB6F894E29AE19A0FBE4FBF0895629F50
:100FE000D001739FF001829FE00DF11D649FE00D21
:100FF000F11D929FF00D839FF00D749FF00D659F82
:10100000F00D9927729FB00DE11DF91F639FB00D80
:10101000E11DF91FBD01CF0111240895A1E21A2E8F
:10102000AA1BBB1BFD010DC0AA1FBB1FEE1FFF1F8C
:10103000A217B307E407F50720F0A21BB30BE40BDC
:10104000F50B661F771F881F991F1A9469F7609523
:101050007095809590959B01AC01BD01CF010895DD
:04106000F894FFCF32
:00000001FF
